:1000000071C000008EC000008CC000008AC00000DB
:1000100088C0000086C0000084C0000082C00000CC
:1000200080C000007EC000007CC000007AC00000DC
:1000300078C0000076C0000074C0000072C00000EC
:1000400070C000006EC000006CC000006AC00000FC
:1000500068C0000066C0000064C0000062C000000C
:1000600060C000005EC000005CC000005AC000001C
:1000700058C0000056C0000054C0000052C000002C
:1000800050C000004EC000004CC000004AC000003C
:100090002DC1000046C0000044C0000042C0000066
:1000A00040C000003EC000003CC000003AC000005C
:1000B00038C0000036C0000034C0000032C000006C
:1000C00030C000002EC000002CC000002AC000007C
:1000D00028C0000026C0000024C0000022C000008C
:1000E00020C0000011241FBECFEFD1E2DEBFCDBF84
:1000F00000E00CBF13E0A0E0B2E0ECE7F3E000E0CA
:100100000BBF02C007900D92A633B107D9F723E0C9
:10011000A6E3B3E001C01D92AD33B207E1F724D1ED
:100120002BC16ECF0000000000000895CF93DF9335
:10013000882331F0D82FC0E0F5DFCF5FDC13FCCF90
:10014000DF91CF910895CF93DF93882369F0D82F63
:10015000C0E08AEFEBDF8AEFE9DF8AEFE7DF8AEFC3
:10016000E5DFCF5FDC13F5CFDF91CF9108950F93DB
:100170001F93CF93DF93082F2E9818E0C2E0D1E0B1
:10018000002324F488818064888303C088818F7B66
:100190008883888180628883C5DF88818F7D88839A
:1001A000000F115069F72E9ADF91CF911F910F9197
:1001B00008951F93CF93DF93811104C02C98862F4D
:1001C000D6DF14C02C9A605270E0EB01CC0FDD1F1B
:1001D000CC0FDD1FC60FD71FC25FDD4F10E0899126
:1001E000C6DF1F5F1530D9F780E0C1DFDF91CF9107
:1001F0001F910895E1E0F1E0808180628083808139
:1002000080648083249A259A269A84E19CDF2D9A23
:100210008AE099DF2E9A61E280E0CBDF63E180E043
:10022000C8DF65EC80E0C5DF64E080E0C2DF60E24B
:1002300080E0BFDF6CE080E0BCCF0895CF93C62F95
:10024000682F606480E0B5DF6C2F660F6C0F660F5F
:10025000606880E0AEDFCF910895CF93DF93D0E068
:100260000CC06C2F8D2FEADF60E281E0A2DFCF5F50
:10027000CE30B9F7DF5FD63011F0C0E0F2CFDF91BA
:10028000CF9108951092CD0087E68093CC00E9ECE1
:10029000F0E088E180838081806880838CE08093B7
:1002A000CA0080E092E090933A0380933903089566
:1002B000E8ECF0E0908195FFFDCF8093CE000895AB
:1002C000CF93C82F8A3021F460E070E08DE0F8DF32
:1002D0008C2FEEDF80E090E0CF910895E8ECF0E025
:1002E00080818823ECF78091CE0008951F920F92B1
:1002F0000FB60F9211240BB60F922F933F934F938B
:100300005F936F937F938F939F93AF93BF93CF939D
:10031000EF93FF9380913603882319F09EDF1092AC
:100320003603DCDFC82FDADFC53549F4811104C09C
:1003300081E08093360303C0682F81E03ADFFF91AC
:10034000EF91CF91BF91AF919F918F917F916F91DD
:100350005F914F913F912F910F900BBE0F900FBE69
:100360000F901F9018950895FEDF78948BDF42DF81
:0C03700074DF82E3E8DEFFCFF894FFCFDB
:10037C00000000020000000060010000000000000E
:10038C0000000000005F00000007000700147F144D
:10039C007F14242A7F2A12231308646236495522BB
:1003AC00500005030000001C2241000041221C00EB
:1003BC0014083E081408083E0808005030000008D5
:1003CC0008080808006060000020100804023E5174
:1003DC0049453E00427F400042615149462141451A
:1003EC004B311814127F1027454545393C4A494971
:1003FC003001710905033649494936064949291E18
:10040C000036360000005636000008142241001455
:10041C001414141400412214080201510906324923
:10042C0079413E7E1111117E7F494949363E414149
:10043C0041227F4141221C7F494949417F090909D9
:10044C00013E4149497A7F0808087F00417F4100FD
:10045C002040413F017F081422417F404040407FB3
:10046C00020C027F7F0408107F3E4141413E7F0910
:10047C000909063E4151215E7F0919294646494921
:10048C00493101017F01013F4040403F1F20402086
:10049C001F3F4038403F6314081463070870080777
:0604AC00615149454300C7
:00000001FF
