S02500004578616D696E6174696F6E7370726F6A656B744441323634614D4547412E7372656374
S113000071C000008EC000008CC000008AC00000D7
S113001088C0000086C0000084C0000082C00000C8
S113002080C000007EC000007CC000007AC00000D8
S113003078C0000076C0000074C0000072C00000E8
S113004070C000006EC000006CC000006AC00000F8
S113005068C0000066C0000064C0000062C0000008
S113006060C000005EC000005CC000008EC20000E2
S113007058C0000056C0000054C0000052C0000028
S113008050C000004EC000004CC000004AC0000038
S113009009C3000046C0000044C0000042C0000084
S11300A040C000003EC000003CC000003AC0000058
S11300B038C0000036C0000034C0000032C0000068
S11300C030C000002EC000002CC000002AC0000078
S11300D028C0000026C0000024C0000022C0000088
S11300E020C0000011241FBECFEFD1E2DEBFCDBF80
S11300F000E00CBF13E0A0E0B2E0EAEDF7E000E0BE
S11301000BBF02C007900D92AA33B107D9F724E0C0
S1130110AAE3B3E001C01D92A035B207E1F752D3C0
S11301205AC36ECF0000000000000895CF93DF9300
S1130130882331F0D82FC0E0F5DFCF5FDC13FCCF8C
S1130140DF91CF910895CF93DF93882369F0D82F5F
S1130150C0E08AEFEBDF8AEFE9DF8AEFE7DF8AEFBF
S1130160E5DFCF5FDC13F5CFDF91CF9108950F93D7
S11301701F93CF93DF93082F2E9818E0C2E0D1E0AD
S1130180002324F488818064888303C088818F7B62
S11301908883888180628883C5DF88818F7D888396
S11301A0000F115069F72E9ADF91CF911F910F9193
S11301B008951F93CF93DF93811104C02C98862F49
S11301C0D6DF14C02C9A605270E0EB01CC0FDD1F17
S11301D0CC0FDD1FC60FD71FC25FDD4F10E0899122
S11301E0C6DF1F5F1530D9F780E0C1DFDF91CF9103
S11301F01F910895E1E0F1E0808180628083808135
S113020080648083249A259A269A84E19CDF2D9A1F
S11302108AE099DF2E9A61E280E0CBDF63E180E03F
S1130220C8DF65EC80E0C5DF64E080E0C2DF60E247
S113023080E0BFDF6CE080E0BCCF0895CF93C62F91
S1130240682F606480E0B5DF6C2F660F6C0F660F5B
S1130250606880E0AEDFCF910895CF93DF93D0E064
S11302600CC06C2F8D2FEADF60E281E0A2DFCF5F4C
S1130270CE30B9F7DF5FD63011F0C0E0F2CFDF91B6
S1130280CF910895DC01EFE3F4E012968C9112977C
S1130290808314968C911497818315968C9115976D
S11302A0828316968C9183833091430480E090E09E
S11302B061E070E02191213041F4AB01082E02C0CD
S11302C0440F551F0A94E2F7342B019684309105AC
S11302D089F7309343040895CF93DF93EB01880F9C
S11302E0991FFB01E80FF91F2081318148E050E09C
S11302F02130310519F4118210820BC0211531050A
S113030029F481E090E09183808303C04150510936
S113031079F785E393E06ED1CE01B4DFDF91CF911D
S113032008950F931F93CF93DF93FC01AFE3B4E0E1
S11303301C9211961C92119712961C921297139666
S11303401C92109243041782008110E0A4E4B4E0EC
S113035011961C930E93218130E013963C932E93B7
S11303601297438150E015965C934E931497C28183
S1130370D0E0A481B0E0668170E0858190E02C0F2C
S11303803D1F280F391F260F371F4A0F5B1F480FC9
S1130390591F460F571FC00FD11FAC0FBD1F6A0F47
S11303A07B1F60FD05C0109245041092440406C0F2
S11303B081E090E0909345048093440420FD05C0BF
S11303C0109247041092460406C081E090E0909396
S11303D047048093460440FD05C0109249041092DE
S11303E0480406C081E090E0909349048093480457
S11303F08091440490914504009791F480914604BF
S113040090914704892B29F58091480490914904DF
S1130410892B09F094C0CF0135DF80914304B0C02B
S1130420019709F089C08091460490914704892B73
S113043041F58091480490914904892B09F087C0C3
S113044010923E0410923D04BF0180E090E044DF2E
S113045073C080914604909147048130910509F05E
S11304607EC08091480490914904892B09F03FC0D3
S113047081E090E090933E0480933D04BF012CDF23
S11304805BC08091460490914704019709F070C0C5
S11304908091480490914904892B09F064C082E05A
S11304A090E090933E0480933D04BF0115DF44C067
S11304B08091480490914904019709F03DC083E07C
S11304C090E090933E0480933D04BF0105DF34C067
S11304D08091480490914904019771F584E090E07B
S11304E090933E0480933D04BF01F6DE25C08091C5
S11304F04604909147040197F9F48091480490913F
S113050049040197C9F485E090E090933E048093F8
S11305103D04BF01E1DE10C0019771F480914804ED
S113052090914904019741F486E090E090933E0451
S113053080933D04BF01D0DE8091430421C08091AB
S1130540460490914704892B09F4B2CFD0CF80910F
S1130550460490914704009709F4BACFDDCF892B64
S113056009F4A6CFE9CF8091460490914704D4CFF3
S11305708091460490914704892B09F4A9CFDCCFDC
S1130580DF91CF911F910F9108951F920F920FB693
S11305900F9211240BB60F928F93EF93FF93E09178
S11305A03A0480913B04E81759F0F0E0E65CFC4F14
S11305B080818093C600EAE3F4E080818F5F8083CA
S11305C0FF91EF918F910F900BBE0F900FBE0F9084
S11305D01F9018951092C50087E68093C40088E5A3
S11305E08093C10086E08093C20010923B04109275
S11305F03A040895DC019C91992371F020913B0405
S11306001196E22FF0E0E65CFC4F90832F5F9D9102
S11306109111F7CF20933B04ABE3B4E08C91E82F26
S1130620F0E0E65CFC4F9DE090838F5F8C938091BB
S1130630C00085FD1092C600089583E08093CD002C
S113064080E48093CC00E9ECF0E088E18083808151
S1130650806880838CE08093CA0080E092E090936D
S11306604D0480934C040895E8ECF0E0908195FFEC
S1130670FDCF8093CE000895CF93C82F8A3021F404
S113068060E070E08DE0F8DF8C2FEEDF80E090E03A
S1130690CF910895E8ECF0E080818823ECF7809115
S11306A0CE0008951F920F920FB60F9211240BB62D
S11306B00F920F931F932F933F934F935F936F93D7
S11306C07F938F939F93AF93BF93EF93FF93CF93B6
S11306D0DF93CDB7DEB76097DEBFCDBF80913C041A
S11306E0882319F0BADD10923C04D4DF082FD2DF3E
S11306F0182F88E0FE013196DF01982F1D929A95FC
S1130700E9F79E01275F3F4FD9011D928A95E9F7CA
S113071020E030E0802F90E061E0AC01022E02C0C6
S1130720559547950A94E2F740FD60832F5F3F4F4C
S113073031962830310589F7CE010196F2DD082F74
S1130740FE01399680E090E0412F50E061E09A018B
S1130750082E02C0359527950A94E2F720FD6083A0
S1130760019631968830910591F7CE010996D9DD2D
S1130770053051F4113021F481E080933C0404C02D
S113078060E3680F81E015DD60960FB6F894DEBF74
S11307900FBECDBFDF91CF91FF91EF91BF91AF918C
S11307A09F918F917F916F915F914F913F912F9185
S11307B01F910F910F900BBE0F900FBE0F901F90C3
S11307C018950895FEDF789438DF14DD46DD82E362
S10D07D0BADC00DFFFCFF894FFCF7E
S11307DA00000002000000003C03000000000000CA
S11307EA00000000005F00000007000700147F14E7
S11307FA7F14242A7F2A1223130864623649552255
S113080A500005030000001C2241000041221C0084
S113081A14083E081408083E08080050300000086E
S113082A08080808006060000020100804023E510D
S113083A49453E00427F40004261514946214145B3
S113084A4B311814127F1027454545393C4A49490A
S113085A3001710905033649494936064949291EB1
S113086A00363600000056360000081422410014EF
S113087A14141414004122140802015109063249BD
S113088A79413E7E1111117E7F494949363E4141E3
S113089A41227F4141221C7F494949417F09090973
S11308AA013E4149497A7F0808087F00417F410097
S11308BA2040413F017F081422417F404040407F4D
S11308CA020C027F7F0408107F3E4141413E7F09AA
S11308DA0909063E4151215E7F09192946464949BB
S11308EA493101017F01013F4040403F1F20402020
S11308FA1F3F4038403F6314081463070870080711
S10D090A615149454368656A000025
S9030000FC
